:100000000C9483000C94B4000C94B4000C94B400D1
:100010000C94B4000C94B4000C94B4000C94B40090
:100020000C94B4000C94B4000C94B4000C94B40080
:100030000C94B4000C94B4000C94B4000C94B40070
:100040000C94B4000C94B4000C94B4000C94B40060
:100050000C94B4000C94B4000C94B4000C943703CA
:100060000C94B4000C94AB030C9481030C94B40076
:100070000C94B4000C94B4000C94B4000C94B40030
:100080000C94B4000C94B4000C94B4000C94B40020
:100090000C94B4000C94B4000C94B4000C94B40010
:1000A0000C94B4000C94B4000C94B4000C94B40000
:1000B0000C94B4000C94B4000C94B4000C94B400F0
:1000C0000C94B4000C94B4000C94B4000C94B400E0
:1000D0000C94B4000C94B4000C94B4000C94B400D0
:1000E0000C94B4000C9407010C949A010C94E10355
:1000F0000C94E4000C944D010C94F3000C94B600A5
:100100000C941501E10311241FBECFEFD1E2DEBF35
:10011000CDBF00E00CBF12E0A0E0B2E0E6E9F1E103
:1001200000E00BBF02C007900D92AC31B107D9F7C8
:1001300023E0ACE1B2E001C01D92A835B207E1F7BF
:1001400010E0C3E8D0E000E006C021970109802F4D
:10015000FE010E94A606C238D10780E00807A9F771
:100160000E9406050C94C9080C940000CF92DF92FF
:10017000EF92FF920F931F93CF93DF936C017A015D
:100180008B01C0E0D0E0CE15DF0581F0D8016D9184
:100190008D01D601ED91FC910190F081E02DC60119
:1001A0001995892B11F02196EECF7E01C701DF91C1
:1001B000CF911F910F91FF90EF90DF90CF90089516
:1001C000089580E090E00895FC01538D448D252F23
:1001D00030E0842F90E0821B930B541710F0CF96E1
:1001E000089501970895FC01918D828D981761F013
:1001F000828DDF01A80FB11D5D968C91928D9F5F5E
:100200009F73928F90E008958FEF9FEF0895FC0108
:10021000918D828D981731F0828DE80FF11D858DBB
:1002200090E008958FEF9FEF0895FC01918D228D4E
:10023000892F90E0805C9F4F821B91098F739927D3
:10024000089587E292E00E94150121E0892B09F4CC
:1002500020E0822F0895FC01848DDF01A80FB11DDD
:10026000A35ABF4F2C91848D90E001968F739927EC
:10027000848FA689B7892C93A089B1898C918370CA
:1002800080648C93938D848D981306C00288F389C3
:10029000E02D80818F7D80830895EF92FF920F93F0
:1002A0001F93CF93DF93EC0181E0888F9B8D8C8D22
:1002B000981305C0E889F989808185FD26C0F62E4E
:1002C0000B8D10E00F5F1F4F0F731127E02E8C8DE9
:1002D000E8120CC00FB607FCFACFE889F9898081D3
:1002E00085FFF5CFCE010E942B01F1CF8B8DFE0152
:1002F000E80FF11DE35AFF4FF0829FB7F8940B8F80
:10030000EA89FB89808180620AC09FB7F894EE89F0
:10031000FF896083E889F9898081837080648083A4
:100320009FBF81E090E0DF91CF911F910F91FF90EF
:10033000EF900895CF93DF93EC01888D8823C9F067
:10034000EA89FB89808185FD05C0A889B9898C91DE
:1003500086FD0FC00FB607FCF5CF808185FFF2CF79
:10036000A889B9898C9185FFEDCFCE010E942B0120
:10037000E7CFDF91CF91089580E090E0892B21F0C5
:100380000E942101811125C080E090E0892B41F07D
:1003900080E090E0892B21F00E94000081111CC0B8
:1003A00080E090E0892B41F080E090E0892B21F003
:1003B0000E940000811113C080E090E0892BA1F021
:1003C00080E090E0892B81F00E94000081110AC03A
:1003D00008950E940000D8CF0E940000E1CF0E9443
:1003E0000000EACF0C94000008950E94B4080F9317
:1003F0001F93CF93DF93EC0188819981009729F0B7
:100400002A813B812617370788F48B016F5F7F4F66
:100410000E94CF07009761F0998388831B830A832A
:100420002C813D81232B11F4FC01108281E001C05D
:1004300080E0DF91CF911F910F910895CF93DF93CB
:10044000EC0188819981009711F00E94460719827A
:1004500018821D821C821B821A82DF91CF9108951F
:10046000EF92FF920F931F93CF93DF93EC017B01E9
:1004700061157105E9F0FB0101900020E9F7319762
:10048000E61BF70BC1F00C811D810E0F1F1FB80179
:100490000E94F701882361F0288139818C819D8138
:1004A000B701820F931F0E94C2081D830C8303C0F3
:1004B000CE010E941E02CE01DF91CF911F910F91BC
:1004C000FF90EF9008958F929F92AF92BF92CF923C
:1004D000DF92EF92FF920F931F93CF93DF93CDB7ED
:1004E000DEB76E970FB6F894DEBF0FBECDBF8C019E
:1004F000FC01A085B1852FE730E00E949F06248192
:100500003581032E000C440B550B0E944F06490108
:100510005A01D80151963C932E93509712968D9183
:100520009C9113971C8A1B8A1E8A1D8A188E1F8A0B
:100530004AE08E010F5F1F4FB8010E941A06F801B2
:1005400001900020E9F731977F01E01AF10AB70125
:10055000CE0143960E94F701811105C0CE0143965A
:100560000E941E0207C0F88EEF8AB8018B899C8911
:100570000E94C2081A8E198E1C8E1B8E1E8E1D8E16
:10058000EB88FC88E114F104A9F0CF88D88CB6017F
:10059000CE0149960E94F701811105C0CE0149960E
:1005A0000E941E0207C0DE8ECD8EB701898D9A8D06
:1005B0000E94C20868E172E0CE0149960E943002B2
:1005C0007C014AE0B801C4010E941A06F8010190BA
:1005D0000020E9F73197E01BF10B01F1D7011496E8
:1005E000CD90DC901597CE0EDF1EB601C7010E949C
:1005F000F701882381F0F701208131818481958181
:10060000B801820F931F0E94C208D7011596DC9291
:10061000CE92149703C0C7010E941E026AE172E0E5
:10062000C7010E943002FC014481558160817181C3
:1006300087E292E00E94B600898D9A8D0E9446075B
:100640008B899C890E9446076E960FB6F894DEBF90
:100650000FBECDBFDF91CF911F910F91FF90EF9013
:10066000DF90CF90BF90AF909F908F9008951F9292
:100670000F920FB60F9211242F933F938F939F9356
:10068000AF93BF938091230290912402A091250201
:10069000B09126023091220223E0230F2D3720F45F
:1006A0000196A11DB11D05C026E8230F0296A11DCC
:1006B000B11D209322028093230290932402A093E1
:1006C0002502B093260280911E0290911F02A091F4
:1006D0002002B09121020196A11DB11D80931E023E
:1006E00090931F02A0932002B0932102BF91AF917B
:1006F0009F918F913F912F910F900FBE0F901F9060
:1007000018951F920F920FB60F9211240BB60F92ED
:100710002F933F934F935F936F937F938F939F9309
:10072000AF93BF93EF93FF9387E292E00E942B0178
:10073000FF91EF91BF91AF919F918F917F916F91B9
:100740005F914F913F912F910F900BBE0F900FBE75
:100750000F901F9018951F920F920FB60F921124B1
:100760000BB60F922F938F939F93EF93FF93E0918C
:100770003702F09138028081E0913D02F0913E0213
:1007800082FD12C09081809140028F5F8F73209113
:100790004102821751F0E0914002F0E0E95DFD4F27
:1007A000958F8093400201C08081FF91EF919F91CE
:1007B0008F912F910F900BBE0F900FBE0F901F9037
:1007C0001895E7E2F2E01382128288EE93E0A0E04F
:1007D000B0E084839583A683B7838AE092E0918317
:1007E000808385EC90E09587848784EC90E0978700
:1007F000868780EC90E0918B808B81EC90E0938BEE
:10080000828B82EC90E0958B848B86EC90E0978BCA
:10081000868B118E128E138E148EE4ECF2E04EE174
:1008200050E051834083138212828EE591E09583DC
:100830008483178216821186108613861286158687
:10084000148617861686118A108A538B428B21E0F4
:1008500030E0358B248B26E930E0378B268B118EE8
:10086000108E138E128E158E148E178E168E11A268
:1008700010A213A212A255A344A322E030E037A392
:1008800026A391A780A713A612A615A614A617A69D
:1008900016A611AA10AA13AA12AA15AA14AA22E32C
:1008A00030E037AB26AB63E070E071AF60AF93AF81
:1008B00082AF15AE14AE17AE16AE109205031092AD
:1008C000040310920703109206031092090310927A
:1008D000080310920B0310920A0330930D03209328
:1008E0000C0364E070E070930F0360930E03909329
:1008F00011038093100310921303109212031092AD
:1009000015031092140310921703109216031092FD
:1009100019031092180310921B0310921A031092DD
:100920001D0310921C0350931F0340931E0345E0C8
:1009300050E050932103409320039093230380932E
:100940002203109225031092240310922703109281
:100950002603109229031092280310922B03109261
:100960002A0310922D0310922C0310922F03109241
:100970002E03309331032093300346E050E0509330
:1009800033034093320390933503809334031092E2
:1009900037031092360310923903109238031092E5
:1009A0003B0310923A0310923D0310923C031092C5
:1009B0003F0310923E031092410310924003309384
:1009C00043032093420327E030E030934503209314
:1009D0004403909347038093460310924903109277
:1009E000480310924B0310924A0310924D03109249
:1009F0004C0310924F0310924E0310925103109229
:100A0000500310925303109252030895789484B5C2
:100A1000826084BD84B5816084BD85B5826085BDFA
:100A200085B5816085BD80916E00816080936E0088
:100A3000109281008091810082608093810080917A
:100A4000810081608093810080918000816080932B
:100A500080008091B10084608093B1008091B000EB
:100A600081608093B00080919100826080939100BA
:100A700080919100816080939100809190008160CD
:100A8000809390008091A10082608093A10080916A
:100A9000A10081608093A1008091A000816080937B
:100AA000A000809121018260809321018091210129
:100AB00081608093210180912001816080932001D9
:100AC00080917A00846080937A0080917A008260BD
:100AD00080937A0080917A00816080937A0080917F
:100AE0007A00806880937A001092C100E09137020A
:100AF000F091380282E08083E0913302F091340279
:100B00001082E0913502F091360280E180831092EC
:100B10003F02E0913B02F0913C0286E08083E0914D
:100B20003902F0913A02808180618083E09139023C
:100B3000F0913A02808188608083E0913902F091DF
:100B40003A02808180688083E0913902F0913A0214
:100B500080818F7D8083C4ECD2E010E080917B00A7
:100B6000877F80937B00812F806480937C008091BD
:100B70007A00806480937A0080917A0086FDFCCFB1
:100B8000809178002091790090E0922B90931D0243
:100B900080931C02488159812C853D85481759074F
:100BA0004CF52F5F3F4F3D872C871F861E8648855B
:100BB00059854817590714F4998788872B303105D0
:100BC0005CF02A853B85265F3F4F2817390724F4C0
:100BD0001D861C86998788878C859D850A9719F4C0
:100BE000CE010E94630280911C0290911D029B879E
:100BF0008A8718C012161306ACF48E859F8501965D
:100C00009F878E87059771F42A3031051CF4CE0139
:100C10000E9463021D861C861F861E861986188602
:100C20001B861A861F5F6296183009F097CF0E94C4
:100C3000BC0191CFBB274A3031F4992322F4BDE2A5
:100C4000909581959F4F0C942606BB27FB01552755
:100C5000AA27880F991FAA1FA41710F0A41B839519
:100C60005051B9F7A05DAA3308F0A95DA193009790
:100C700079F7B111B1931192CB010C943F06DC01CD
:100C8000FC01672F71917723E1F7329704C07C91C3
:100C90006D9370836291AE17BF07C8F30895052E58
:100CA00097FB1EF400940E94660657FD07D00E9431
:100CB0006E0607FC03D04EF40C94660650954095E2
:100CC000309521953F4F4F4F5F4F089590958095F8
:100CD000709561957F4F8F4F9F4F0895A1E21A2E17
:100CE000AA1BBB1BFD010DC0AA1FBB1FEE1FFF1FD0
:100CF000A217B307E407F50720F0A21BB30BE40B20
:100D0000F50B661F771F881F991F1A9469F7609566
:100D10007095809590959B01AC01BD01CF01089520
:100D2000A29FB001B39FC001A39F700D811D11242C
:100D3000911DB29F700D811D1124911D08950E9477
:100D40009006B7FF0895821B930B0895EE0FFF1FC7
:100D5000881F8BBF0790F691E02D19940F931F9376
:100D6000CF93DF938230910510F482E090E0E09120
:100D70005603F091570320E030E0A0E0B0E0309758
:100D800019F1408151810281138148175907C8F038
:100D90008417950769F4109731F012960C93129707
:100DA00013961C9327C0009356031093570322C039
:100DB0002115310519F04217530718F49A01BD01A6
:100DC000EF01DF01F801DBCF21153105F9F0281B18
:100DD000390B2430310580F48A819B8161157105BE
:100DE00021F0FB019383828304C090935703809387
:100DF0005603FE01329644C0FE01E20FF31F8193B9
:100E0000919322503109398328833AC020915403A9
:100E100030915503232B41F42091020230910302BB
:100E20003093550320935403209100023091010226
:100E30002115310541F42DB73EB740910402509180
:100E40000502241B350BE0915403F0915503E21782
:100E5000F307A0F42E1B3F0B2817390778F0AC01DD
:100E60004E5F5F4F2417350748F04E0F5F1F5093BA
:100E70005503409354038193919302C0E0E0F0E066
:100E8000CF01DF91CF911F910F910895CF93DF9301
:100E9000009709F481C0FC01329713821282A0915D
:100EA0005603B0915703109781F420813181820F4E
:100EB000931F20915403309155032817390751F59A
:100EC000F0935503E093540367C0ED0120E030E058
:100ED000CE17DF0740F44A815B819E014115510521
:100EE000F1F0EA01F5CFD383C28340815181840FB1
:100EF000951FC817D90759F488819981840F951FC8
:100F00000296918380838A819B81938382832115BA
:100F1000310529F4F0935703E09356033DC0E901EE
:100F2000FB83EA8349915991C40FD51FEC17FD0744
:100F300061F480819181840F951F0296E901998364
:100F40008883828193819B838A83E0E0F0E012961C
:100F50008D919C911397009719F0FD01DC01F7CF5B
:100F60008D919C9111979D012E5F3F4F820F931F92
:100F700020915403309155032817390769F43097AD
:100F800029F4109257031092560302C01382128262
:100F9000B0935503A0935403DF91CF9108956F92BE
:100FA0007F928F929F92AF92BF92CF92DF92EF92F9
:100FB000FF920F931F93CF93DF93009789F4CB0198
:100FC000DF91CF911F910F91FF90EF90DF90CF9025
:100FD000BF90AF909F908F907F906F900C94AE06D3
:100FE000FC01E60FF71F9C0122503109E217F307BD
:100FF00008F4A9C0EC01D9010D911C9111970617B5
:101000001707B0F00530110508F49BC0C80104971C
:101010008617970708F495C002501109061B170B95
:10102000019311936D937C93CF010E94460789C071
:101030005B01A01AB10A4C01800E911EA0915603CB
:10104000B0915703612C712CE12CF12C109709F40D
:1010500046C08D919C911197A815B905B1F56C0109
:1010600042E0C40ED11CCA14DB0478F14C018A188A
:101070009B08640142E0C40ED11C1296BC901297EA
:101080001396AC91B5E0CB16D10440F0B282A383A5
:1010900091828082D9016D937C9309C00E5F1F4FAE
:1010A000800F911FF90191838083EB2DFA2FE114BA
:1010B000F10431F0D7011396FC93EE93129741C0DF
:1010C000F0935703E09356033CC06816790608F482
:1010D0003C017D0112960D90BC91A02DB7CF80915F
:1010E00054039091550388169906E1F46616770625
:1010F000C8F48091000290910102009741F48DB7ED
:101100009EB74091040250910502841B950BE8178D
:10111000F907C8F4F0935503E0935403F901718380
:1011200060830FC0CB010E94AE067C01009759F08E
:10113000A801BE010E94B908CE010E944607C7015E
:1011400004C0CE0102C080E090E0DF91CF911F91FA
:101150000F91FF90EF90DF90CF90BF90AF909F9056
:101160008F907F906F90089581E090E0F8940C94B8
:10117000C908FB01DC0102C001900D9241505040B2
:10118000D8F70895FB01DC0101900D920020E1F7F2
:061190000895F894FFCF62
:10119600000058032000000000004D01B600E400E6
:0C11A6009A011501F30007012D002F0035
:00000001FF
